{
  "contractName": "MetaCoin",
  "abi": [
    {
      "inputs": [],
      "payable": false,
      "stateMutability": "nonpayable",
      "type": "constructor"
    },
    {
      "anonymous": false,
      "inputs": [
        {
          "indexed": true,
          "internalType": "address",
          "name": "_from",
          "type": "address"
        },
        {
          "indexed": true,
          "internalType": "address",
          "name": "_to",
          "type": "address"
        },
        {
          "indexed": false,
          "internalType": "uint256",
          "name": "_value",
          "type": "uint256"
        }
      ],
      "name": "Transfer",
      "type": "event"
    },
    {
      "constant": false,
      "inputs": [
        {
          "internalType": "address",
          "name": "receiver",
          "type": "address"
        },
        {
          "internalType": "uint256",
          "name": "amount",
          "type": "uint256"
        },
        {
          "internalType": "string",
          "name": "name",
          "type": "string"
        },
        {
          "internalType": "string",
          "name": "id",
          "type": "string"
        }
      ],
      "name": "sendCoin",
      "outputs": [
        {
          "internalType": "bool",
          "name": "sufficient",
          "type": "bool"
        }
      ],
      "payable": false,
      "stateMutability": "nonpayable",
      "type": "function"
    },
    {
      "constant": true,
      "inputs": [
        {
          "internalType": "address",
          "name": "receiver",
          "type": "address"
        }
      ],
      "name": "getInfoPrevious",
      "outputs": [
        {
          "internalType": "string",
          "name": "",
          "type": "string"
        },
        {
          "internalType": "uint256",
          "name": "",
          "type": "uint256"
        },
        {
          "internalType": "string",
          "name": "",
          "type": "string"
        }
      ],
      "payable": false,
      "stateMutability": "view",
      "type": "function"
    },
    {
      "constant": true,
      "inputs": [
        {
          "internalType": "string",
          "name": "id",
          "type": "string"
        }
      ],
      "name": "getTransactionByID",
      "outputs": [
        {
          "internalType": "uint256",
          "name": "",
          "type": "uint256"
        },
        {
          "internalType": "string",
          "name": "",
          "type": "string"
        },
        {
          "internalType": "address",
          "name": "",
          "type": "address"
        }
      ],
      "payable": false,
      "stateMutability": "view",
      "type": "function"
    },
    {
      "constant": true,
      "inputs": [],
      "name": "GetTrailCount",
      "outputs": [
        {
          "internalType": "uint8",
          "name": "",
          "type": "uint8"
        }
      ],
      "payable": false,
      "stateMutability": "view",
      "type": "function"
    },
    {
      "constant": true,
      "inputs": [
        {
          "internalType": "uint8",
          "name": "TrailNo",
          "type": "uint8"
        }
      ],
      "name": "GetLocation",
      "outputs": [
        {
          "internalType": "string",
          "name": "",
          "type": "string"
        },
        {
          "internalType": "uint256",
          "name": "",
          "type": "uint256"
        },
        {
          "internalType": "address",
          "name": "",
          "type": "address"
        }
      ],
      "payable": false,
      "stateMutability": "view",
      "type": "function"
    },
    {
      "constant": true,
      "inputs": [
        {
          "internalType": "address",
          "name": "addr",
          "type": "address"
        }
      ],
      "name": "getBalanceInEth",
      "outputs": [
        {
          "internalType": "uint256",
          "name": "",
          "type": "uint256"
        }
      ],
      "payable": false,
      "stateMutability": "view",
      "type": "function"
    },
    {
      "constant": true,
      "inputs": [
        {
          "internalType": "address",
          "name": "addr",
          "type": "address"
        }
      ],
      "name": "getBalance",
      "outputs": [
        {
          "internalType": "uint256",
          "name": "",
          "type": "uint256"
        }
      ],
      "payable": false,
      "stateMutability": "view",
      "type": "function"
    },
    {
      "constant": true,
      "inputs": [],
      "name": "getaddress",
      "outputs": [
        {
          "internalType": "address",
          "name": "",
          "type": "address"
        }
      ],
      "payable": false,
      "stateMutability": "view",
      "type": "function"
    }
  ],
  "bytecode": "0x60806040526000600360006101000a81548160ff021916908360ff16021790555034801561002c57600080fd5b50612710600460003273ffffffffffffffffffffffffffffffffffffffff1673ffffffffffffffffffffffffffffffffffffffff16815260200190815260200160002081905550611616806100826000396000f3fe608060405234801561001057600080fd5b50600436106100885760003560e01c806389890cf51161005b57806389890cf5146103cd578063bbe42af814610561578063e3fd1ec214610585578063f8b2cb4f1461066957610088565b8063252bd4d31461008d5780633e5d88d6146100d757806370a9db31146102075780637bd703e814610375575b600080fd5b6100956106c1565b604051808273ffffffffffffffffffffffffffffffffffffffff1673ffffffffffffffffffffffffffffffffffffffff16815260200191505060405180910390f35b610119600480360360208110156100ed57600080fd5b81019080803573ffffffffffffffffffffffffffffffffffffffff1690602001909291905050506106c9565b604051808060200184815260200180602001838103835286818151815260200191508051906020019080838360005b83811015610163578082015181840152602081019050610148565b50505050905090810190601f1680156101905780820380516001836020036101000a031916815260200191505b50838103825284818151815260200191508051906020019080838360005b838110156101c95780820151818401526020810190506101ae565b50505050905090810190601f1680156101f65780820380516001836020036101000a031916815260200191505b509550505050505060405180910390f35b6102c06004803603602081101561021d57600080fd5b810190808035906020019064010000000081111561023a57600080fd5b82018360208201111561024c57600080fd5b8035906020019184600183028401116401000000008311171561026e57600080fd5b91908080601f016020809104026020016040519081016040528093929190818152602001838380828437600081840152601f19601f820116905080830192505050505050509192919290505050610a46565b60405180848152602001806020018373ffffffffffffffffffffffffffffffffffffffff1673ffffffffffffffffffffffffffffffffffffffff168152602001828103825284818151815260200191508051906020019080838360005b8381101561033857808201518184015260208101905061031d565b50505050905090810190601f1680156103655780820380516001836020036101000a031916815260200191505b5094505050505060405180910390f35b6103b76004803603602081101561038b57600080fd5b81019080803573ffffffffffffffffffffffffffffffffffffffff169060200190929190505050610c5b565b6040518082815260200191505060405180910390f35b610547600480360360808110156103e357600080fd5b81019080803573ffffffffffffffffffffffffffffffffffffffff169060200190929190803590602001909291908035906020019064010000000081111561042a57600080fd5b82018360208201111561043c57600080fd5b8035906020019184600183028401116401000000008311171561045e57600080fd5b91908080601f016020809104026020016040519081016040528093929190818152602001838380828437600081840152601f19601f820116905080830192505050505050509192919290803590602001906401000000008111156104c157600080fd5b8201836020820111156104d357600080fd5b803590602001918460018302840111640100000000831117156104f557600080fd5b91908080601f016020809104026020016040519081016040528093929190818152602001838380828437600081840152601f19601f820116905080830192505050505050509192919290505050610cff565b604051808215151515815260200191505060405180910390f35b61056961125f565b604051808260ff1660ff16815260200191505060405180910390f35b6105b46004803603602081101561059b57600080fd5b81019080803560ff169060200190929190505050611276565b60405180806020018481526020018373ffffffffffffffffffffffffffffffffffffffff1673ffffffffffffffffffffffffffffffffffffffff168152602001828103825285818151815260200191508051906020019080838360005b8381101561062c578082015181840152602081019050610611565b50505050905090810190601f1680156106595780820380516001836020036101000a031916815260200191505b5094505050505060405180910390f35b6106ab6004803603602081101561067f57600080fd5b81019080803573ffffffffffffffffffffffffffffffffffffffff169060200190929190505050611391565b6040518082815260200191505060405180910390f35b600033905090565b60606000606060008060008673ffffffffffffffffffffffffffffffffffffffff1673ffffffffffffffffffffffffffffffffffffffff16815260200190815260200160002090506000818054600181600116156101000203166002900490501415610815576000816040518060400160405280600481526020017f4e756c6c000000000000000000000000000000000000000000000000000000008152509190819150808054600181600116156101000203166002900480601f0160208091040260200160405190810160405280929190818152602001828054600181600116156101000203166002900480156108025780601f106107d757610100808354040283529160200191610802565b820191906000526020600020905b8154815290600101906020018083116107e557829003601f168201915b5050505050905093509350935050610a3f565b60018160405180828054600181600116156101000203166002900480156108735780601f10610851576101008083540402835291820191610873565b820191906000526020600020905b81548152906001019060200180831161085f575b5050915050908152602001604051809103902060000160018260405180828054600181600116156101000203166002900480156108e75780601f106108c55761010080835404028352918201916108e7565b820191906000526020600020905b8154815290600101906020018083116108d3575b505091505090815260200160405180910390206004015482828054600181600116156101000203166002900480601f0160208091040260200160405190810160405280929190818152602001828054600181600116156101000203166002900480156109945780601f1061096957610100808354040283529160200191610994565b820191906000526020600020905b81548152906001019060200180831161097757829003601f168201915b50505050509250808054600181600116156101000203166002900480601f016020809104026020016040519081016040528092919081815260200182805460018160011615610100020316600290048015610a305780601f10610a0557610100808354040283529160200191610a30565b820191906000526020600020905b815481529060010190602001808311610a1357829003601f168201915b50505050509050935093509350505b9193909250565b6000606060006001846040518082805190602001908083835b60208310610a825780518252602082019150602081019050602083039250610a5f565b6001836020036101000a0380198251168184511680821785525050505050509050019150509081526020016040518091039020600401546001856040518082805190602001908083835b60208310610aef5780518252602082019150602081019050602083039250610acc565b6001836020036101000a03801982511681845116808217855250505050505090500191505090815260200160405180910390206000016001866040518082805190602001908083835b60208310610b5b5780518252602082019150602081019050602083039250610b38565b6001836020036101000a038019825116818451168082178552505050505050905001915050908152602001604051809103902060010160009054906101000a900473ffffffffffffffffffffffffffffffffffffffff16818054600181600116156101000203166002900480601f016020809104026020016040519081016040528092919081815260200182805460018160011615610100020316600290048015610c475780601f10610c1c57610100808354040283529160200191610c47565b820191906000526020600020905b815481529060010190602001808311610c2a57829003601f168201915b505050505091509250925092509193909250565b600073__ConvertLib____________________________6396e4ee3d610c8084611391565b60026040518363ffffffff1660e01b8152600401808381526020018281526020019250505060206040518083038186803b158015610cbd57600080fd5b505af4158015610cd1573d6000803e3d6000fd5b505050506040513d6020811015610ce757600080fd5b81019080805190602001909291905050509050919050565b6000610d096113da565b85816020019073ffffffffffffffffffffffffffffffffffffffff16908173ffffffffffffffffffffffffffffffffffffffff16815250504281606001818152505083816000018190525084816080018181525050826000808873ffffffffffffffffffffffffffffffffffffffff1673ffffffffffffffffffffffffffffffffffffffff1681526020019081526020016000209080519060200190610db0929190611435565b506000600360009054906101000a900460ff1660ff1614610e4c5760026000600360009054906101000a900460ff1660ff16815260200190815260200160002060010160009054906101000a900473ffffffffffffffffffffffffffffffffffffffff16816040019073ffffffffffffffffffffffffffffffffffffffff16908173ffffffffffffffffffffffffffffffffffffffff16815250505b8060026000600360009054906101000a900460ff1660ff1681526020019081526020016000206000820151816000019080519060200190610e8e9291906114b5565b5060208201518160010160006101000a81548173ffffffffffffffffffffffffffffffffffffffff021916908373ffffffffffffffffffffffffffffffffffffffff16021790555060408201518160020160006101000a81548173ffffffffffffffffffffffffffffffffffffffff021916908373ffffffffffffffffffffffffffffffffffffffff160217905550606082015181600301556080820151816004015590505060026000600360009054906101000a900460ff1660ff1681526020019081526020016000206001846040518082805190602001908083835b60208310610f8f5780518252602082019150602081019050602083039250610f6c565b6001836020036101000a038019825116818451168082178552505050505050905001915050908152602001604051809103902060008201816000019080546001816001161561010002031660029004610fe9929190611535565b506001820160009054906101000a900473ffffffffffffffffffffffffffffffffffffffff168160010160006101000a81548173ffffffffffffffffffffffffffffffffffffffff021916908373ffffffffffffffffffffffffffffffffffffffff1602179055506002820160009054906101000a900473ffffffffffffffffffffffffffffffffffffffff168160020160006101000a81548173ffffffffffffffffffffffffffffffffffffffff021916908373ffffffffffffffffffffffffffffffffffffffff16021790555060038201548160030155600482015481600401559050506003600081819054906101000a900460ff168092919060010191906101000a81548160ff021916908360ff1602179055505084600460003373ffffffffffffffffffffffffffffffffffffffff1673ffffffffffffffffffffffffffffffffffffffff168152602001908152602001600020541015611152576000915050611257565b84600460003373ffffffffffffffffffffffffffffffffffffffff1673ffffffffffffffffffffffffffffffffffffffff1681526020019081526020016000206000828254039250508190555084600460008873ffffffffffffffffffffffffffffffffffffffff1673ffffffffffffffffffffffffffffffffffffffff168152602001908152602001600020600082825401925050819055508573ffffffffffffffffffffffffffffffffffffffff163373ffffffffffffffffffffffffffffffffffffffff167fddf252ad1be2c89b69c2b068fc378daa952ba7f163c4a11628f55a4df523b3ef876040518082815260200191505060405180910390a360019150505b949350505050565b6000600360009054906101000a900460ff16905090565b6060600080600260008560ff168152602001908152602001600020600001600260008660ff16815260200190815260200160002060040154600260008760ff16815260200190815260200160002060010160009054906101000a900473ffffffffffffffffffffffffffffffffffffffff16828054600181600116156101000203166002900480601f01602080910402602001604051908101604052809291908181526020018280546001816001161561010002031660029004801561137d5780601f106113525761010080835404028352916020019161137d565b820191906000526020600020905b81548152906001019060200180831161136057829003601f168201915b505050505092509250925092509193909250565b6000600460008373ffffffffffffffffffffffffffffffffffffffff1673ffffffffffffffffffffffffffffffffffffffff168152602001908152602001600020549050919050565b6040518060a0016040528060608152602001600073ffffffffffffffffffffffffffffffffffffffff168152602001600073ffffffffffffffffffffffffffffffffffffffff16815260200160008152602001600081525090565b828054600181600116156101000203166002900490600052602060002090601f016020900481019282601f1061147657805160ff19168380011785556114a4565b828001600101855582156114a4579182015b828111156114a3578251825591602001919060010190611488565b5b5090506114b191906115bc565b5090565b828054600181600116156101000203166002900490600052602060002090601f016020900481019282601f106114f657805160ff1916838001178555611524565b82800160010185558215611524579182015b82811115611523578251825591602001919060010190611508565b5b50905061153191906115bc565b5090565b828054600181600116156101000203166002900490600052602060002090601f016020900481019282601f1061156e57805485556115ab565b828001600101855582156115ab57600052602060002091601f016020900482015b828111156115aa57825482559160010191906001019061158f565b5b5090506115b891906115bc565b5090565b6115de91905b808211156115da5760008160009055506001016115c2565b5090565b9056fea265627a7a7231582099d433c238b5d81338fa38a7a6c8978f8c8b08a7c3eb864477aa171ebf85946264736f6c63430005100032",
  "source": "// SPDX-License-Identifier: MIT\npragma solidity >=0.4.25 <0.7.0;\n\nimport \"./ConvertLib.sol\";\n\n// This is just a simple example of a coin-like contract.\n// It is not standards compatible and cannot be expected to talk to other\n// coin/token contracts. If you want to create a standards-compliant\n// token, see: https://github.com/ConsenSys/Tokens. Cheers!\n\ncontract MetaCoin {\n\tstruct Location{\n\t\tstring name;\n        address Receiver;\n\t\taddress PreviousLocationId;\n        uint Timestamp;\n\t\tuint amount;\n\t\t \n    }\n\tmapping(address=>string) getID;\n\tmapping(string=>Location) ID;\n    mapping(uint=>Location) Trail;\n\tuint8 TrailCount=0;\n    mapping (address => uint) balances;\n\n\tevent Transfer(address indexed _from, address indexed _to, uint256 _value);\n\n\tconstructor() public {\n\t\tbalances[tx.origin] = 10000;\n\t}\n\n\n\tfunction sendCoin(address receiver, uint amount,string memory name,string memory id) public returns(bool sufficient) {\n\t\tLocation memory newLocation;\n        newLocation.Receiver = receiver;\n        newLocation.Timestamp = now;\n\t\tnewLocation.name = name;\n\t\tnewLocation.amount = amount;\n\t\tgetID[receiver] = id;\n        if(TrailCount!=0)\n        {\n            newLocation.PreviousLocationId= Trail[TrailCount].Receiver;\n        }\n        Trail[TrailCount] = newLocation;\n\t\tID[id] = Trail[TrailCount];\n        TrailCount++;\n\t\tif (balances[msg.sender] < amount) return false;\n\t\tbalances[msg.sender] -= amount;\n\t\tbalances[receiver] += amount;\n\t\temit Transfer(msg.sender, receiver, amount);\n\t\treturn true;\n\t}\n\tfunction getInfoPrevious(address receiver) public view returns(string memory,uint,string memory){\n\t\tstring storage id = getID[receiver];\n\t\tif (bytes(id).length == 0){\n\t\t\treturn (\"Null\",0,id);\n\t\t}\n\t\treturn (ID[id].name,ID[id].amount,id);\n\t}\n\tfunction getTransactionByID(string memory id) public view returns(uint,string memory,address) {\n\t\t\n\t\treturn (ID[id].amount,ID[id].name,ID[id].Receiver);\n\t}\n\n \tfunction GetTrailCount() public view returns(uint8){\n        return MetaCoin.TrailCount;\n    }\n    function GetLocation(uint8 TrailNo) public view returns (string memory,uint,address)\n    {\n        return (Trail[TrailNo].name,Trail[TrailNo].amount,Trail[TrailNo].Receiver);\n    }\n\tfunction getBalanceInEth(address addr) public view returns(uint){\n\t\treturn ConvertLib.convert(getBalance(addr),2);\n\t}\n\n\tfunction getBalance(address addr) public view returns(uint) {\n\t\treturn balances[addr];\n\t}\n\tfunction getaddress() public view returns(address) {\n\t\treturn msg.sender;\n\t}\n\t\n}",
  "sourcePath": "C:/xampp/htdocs/Dapp2/CharityDapp/contracts/MetaCoin.sol",
  "compiler": {
    "name": "solc",
    "version": "0.5.16+commit.9c3226ce.Emscripten.clang"
  },
  "schemaVersion": "3.2.3",
  "updatedAt": "2020-08-10T23:52:35.377Z",
  "networkType": "ethereum",
  "devdoc": {
    "methods": {}
  },
  "userdoc": {
    "methods": {}
  }
}